{
  "contractName": "CredentialHash",
  "abi": [
    {
      "inputs": [],
      "name": "ipfsHash",
      "outputs": [
        {
          "internalType": "string",
          "name": "",
          "type": "string"
        }
      ],
      "stateMutability": "view",
      "type": "function",
      "constant": true
    },
    {
      "inputs": [
        {
          "internalType": "string",
          "name": "x",
          "type": "string"
        }
      ],
      "name": "saveHash",
      "outputs": [],
      "stateMutability": "nonpayable",
      "type": "function"
    },
    {
      "inputs": [],
      "name": "getHash",
      "outputs": [
        {
          "internalType": "string",
          "name": "x",
          "type": "string"
        }
      ],
      "stateMutability": "view",
      "type": "function",
      "constant": true
    }
  ],
  "bytecode": "0x608060405234801561001057600080fd5b5061042c806100206000396000f3fe608060405234801561001057600080fd5b506004361061005d577c010000000000000000000000000000000000000000000000000000000060003504631c01b9bf8114610062578063c623674f14610077578063d13319c414610095575b600080fd5b61007561007036600461029c565b61009d565b005b61007f6100b4565b60405161008c919061034d565b60405180910390f35b61007f610142565b80516100b09060009060208401906101d4565b5050565b600080546100c1906103a2565b80601f01602080910402602001604051908101604052809291908181526020018280546100ed906103a2565b801561013a5780601f1061010f5761010080835404028352916020019161013a565b820191906000526020600020905b81548152906001019060200180831161011d57829003601f168201915b505050505081565b606060008054610151906103a2565b80601f016020809104026020016040519081016040528092919081815260200182805461017d906103a2565b80156101ca5780601f1061019f576101008083540402835291602001916101ca565b820191906000526020600020905b8154815290600101906020018083116101ad57829003601f168201915b5050505050905090565b8280546101e0906103a2565b90600052602060002090601f0160209004810192826102025760008555610248565b82601f1061021b57805160ff1916838001178555610248565b82800160010185558215610248579182015b8281111561024857825182559160200191906001019061022d565b50610254929150610258565b5090565b5b808211156102545760008155600101610259565b7f4e487b7100000000000000000000000000000000000000000000000000000000600052604160045260246000fd5b6000602082840312156102ae57600080fd5b813567ffffffffffffffff808211156102c657600080fd5b818401915084601f8301126102da57600080fd5b8135818111156102ec576102ec61026d565b604051601f8201601f19908116603f011681019083821181831017156103145761031461026d565b8160405282815287602084870101111561032d57600080fd5b826020860160208301376000928101602001929092525095945050505050565b600060208083528351808285015260005b8181101561037a5785810183015185820160400152820161035e565b8181111561038c576000604083870101525b50601f01601f1916929092016040019392505050565b6002810460018216806103b657607f821691505b602082108114156103f0577f4e487b7100000000000000000000000000000000000000000000000000000000600052602260045260246000fd5b5091905056fea2646970667358221220170f39c4f8273a3b435035307abb6535288beff7982c52c1a53f45518e9561f064736f6c634300080c0033",
  "immutableReferences": {},
  "source": "pragma solidity >=0.4.22 <0.9.0;\n\ncontract CredentialHash{\n    string public ipfsHash;\n\n    function saveHash(string memory x) public {\n        ipfsHash = x;\n    }\n\n    function getHash() public view returns (string memory x){\n        return ipfsHash;\n    }\n}",
  "sourcePath": "/Users/siddharthagarwal/Desktop/Projects/FYP21050/server/blockchain/contracts/CredentialHash.sol",
  "compiler": {
    "name": "solc",
    "version": "0.8.12+commit.f00d7308.Emscripten.clang"
  },
  "schemaVersion": "3.4.6",
  "updatedAt": "2022-03-13T08:08:55.876Z",
  "networkType": "ethereum",
  "devdoc": {
    "kind": "dev",
    "methods": {},
    "version": 1
  },
  "userdoc": {
    "kind": "user",
    "methods": {},
    "version": 1
  }
}