{
  "contractName": "UniqueAsset",
  "abi": [
    {
      "inputs": [],
      "stateMutability": "nonpayable",
      "type": "constructor"
    },
    {
      "anonymous": false,
      "inputs": [
        {
          "indexed": true,
          "internalType": "address",
          "name": "owner",
          "type": "address"
        },
        {
          "indexed": true,
          "internalType": "address",
          "name": "approved",
          "type": "address"
        },
        {
          "indexed": true,
          "internalType": "uint256",
          "name": "tokenId",
          "type": "uint256"
        }
      ],
      "name": "Approval",
      "type": "event"
    },
    {
      "anonymous": false,
      "inputs": [
        {
          "indexed": true,
          "internalType": "address",
          "name": "owner",
          "type": "address"
        },
        {
          "indexed": true,
          "internalType": "address",
          "name": "operator",
          "type": "address"
        },
        {
          "indexed": false,
          "internalType": "bool",
          "name": "approved",
          "type": "bool"
        }
      ],
      "name": "ApprovalForAll",
      "type": "event"
    },
    {
      "anonymous": false,
      "inputs": [
        {
          "indexed": true,
          "internalType": "address",
          "name": "from",
          "type": "address"
        },
        {
          "indexed": true,
          "internalType": "address",
          "name": "to",
          "type": "address"
        },
        {
          "indexed": true,
          "internalType": "uint256",
          "name": "tokenId",
          "type": "uint256"
        }
      ],
      "name": "Transfer",
      "type": "event"
    },
    {
      "inputs": [
        {
          "internalType": "address",
          "name": "to",
          "type": "address"
        },
        {
          "internalType": "uint256",
          "name": "tokenId",
          "type": "uint256"
        }
      ],
      "name": "approve",
      "outputs": [],
      "stateMutability": "nonpayable",
      "type": "function"
    },
    {
      "inputs": [
        {
          "internalType": "address",
          "name": "owner",
          "type": "address"
        }
      ],
      "name": "balanceOf",
      "outputs": [
        {
          "internalType": "uint256",
          "name": "",
          "type": "uint256"
        }
      ],
      "stateMutability": "view",
      "type": "function",
      "constant": true
    },
    {
      "inputs": [
        {
          "internalType": "uint256",
          "name": "tokenId",
          "type": "uint256"
        }
      ],
      "name": "getApproved",
      "outputs": [
        {
          "internalType": "address",
          "name": "",
          "type": "address"
        }
      ],
      "stateMutability": "view",
      "type": "function",
      "constant": true
    },
    {
      "inputs": [
        {
          "internalType": "address",
          "name": "owner",
          "type": "address"
        },
        {
          "internalType": "address",
          "name": "operator",
          "type": "address"
        }
      ],
      "name": "isApprovedForAll",
      "outputs": [
        {
          "internalType": "bool",
          "name": "",
          "type": "bool"
        }
      ],
      "stateMutability": "view",
      "type": "function",
      "constant": true
    },
    {
      "inputs": [],
      "name": "name",
      "outputs": [
        {
          "internalType": "string",
          "name": "",
          "type": "string"
        }
      ],
      "stateMutability": "view",
      "type": "function",
      "constant": true
    },
    {
      "inputs": [
        {
          "internalType": "uint256",
          "name": "tokenId",
          "type": "uint256"
        }
      ],
      "name": "ownerOf",
      "outputs": [
        {
          "internalType": "address",
          "name": "",
          "type": "address"
        }
      ],
      "stateMutability": "view",
      "type": "function",
      "constant": true
    },
    {
      "inputs": [
        {
          "internalType": "address",
          "name": "from",
          "type": "address"
        },
        {
          "internalType": "address",
          "name": "to",
          "type": "address"
        },
        {
          "internalType": "uint256",
          "name": "tokenId",
          "type": "uint256"
        }
      ],
      "name": "safeTransferFrom",
      "outputs": [],
      "stateMutability": "nonpayable",
      "type": "function"
    },
    {
      "inputs": [
        {
          "internalType": "address",
          "name": "from",
          "type": "address"
        },
        {
          "internalType": "address",
          "name": "to",
          "type": "address"
        },
        {
          "internalType": "uint256",
          "name": "tokenId",
          "type": "uint256"
        },
        {
          "internalType": "bytes",
          "name": "_data",
          "type": "bytes"
        }
      ],
      "name": "safeTransferFrom",
      "outputs": [],
      "stateMutability": "nonpayable",
      "type": "function"
    },
    {
      "inputs": [
        {
          "internalType": "address",
          "name": "operator",
          "type": "address"
        },
        {
          "internalType": "bool",
          "name": "approved",
          "type": "bool"
        }
      ],
      "name": "setApprovalForAll",
      "outputs": [],
      "stateMutability": "nonpayable",
      "type": "function"
    },
    {
      "inputs": [
        {
          "internalType": "bytes4",
          "name": "interfaceId",
          "type": "bytes4"
        }
      ],
      "name": "supportsInterface",
      "outputs": [
        {
          "internalType": "bool",
          "name": "",
          "type": "bool"
        }
      ],
      "stateMutability": "view",
      "type": "function",
      "constant": true
    },
    {
      "inputs": [],
      "name": "symbol",
      "outputs": [
        {
          "internalType": "string",
          "name": "",
          "type": "string"
        }
      ],
      "stateMutability": "view",
      "type": "function",
      "constant": true
    },
    {
      "inputs": [
        {
          "internalType": "uint256",
          "name": "tokenId",
          "type": "uint256"
        }
      ],
      "name": "tokenURI",
      "outputs": [
        {
          "internalType": "string",
          "name": "",
          "type": "string"
        }
      ],
      "stateMutability": "view",
      "type": "function",
      "constant": true
    },
    {
      "inputs": [
        {
          "internalType": "uint256",
          "name": "",
          "type": "uint256"
        }
      ],
      "name": "tokenURIs",
      "outputs": [
        {
          "internalType": "string",
          "name": "",
          "type": "string"
        }
      ],
      "stateMutability": "view",
      "type": "function",
      "constant": true
    },
    {
      "inputs": [
        {
          "internalType": "address",
          "name": "from",
          "type": "address"
        },
        {
          "internalType": "address",
          "name": "to",
          "type": "address"
        },
        {
          "internalType": "uint256",
          "name": "tokenId",
          "type": "uint256"
        }
      ],
      "name": "transferFrom",
      "outputs": [],
      "stateMutability": "nonpayable",
      "type": "function"
    },
    {
      "inputs": [
        {
          "internalType": "address",
          "name": "recipient",
          "type": "address"
        },
        {
          "internalType": "string",
          "name": "hash",
          "type": "string"
        },
        {
          "internalType": "string",
          "name": "metadata",
          "type": "string"
        }
      ],
      "name": "awardItem",
      "outputs": [
        {
          "internalType": "uint256",
          "name": "",
          "type": "uint256"
        }
      ],
      "stateMutability": "nonpayable",
      "type": "function"
    },
    {
      "inputs": [],
      "name": "abc",
      "outputs": [
        {
          "internalType": "string",
          "name": "",
          "type": "string"
        }
      ],
      "stateMutability": "nonpayable",
      "type": "function"
    }
  ],
  "bytecode": "0x60806040523480156200001157600080fd5b50604080518082018252600b81527f556e69717565417373657400000000000000000000000000000000000000000060208083019182528351808501909452600384527f554e4100000000000000000000000000000000000000000000000000000000009084015281519192916200008c91600091620000ab565b508051620000a2906001906020840190620000ab565b505050620001a7565b828054620000b99062000151565b90600052602060002090601f016020900481019282620000dd576000855562000128565b82601f10620000f857805160ff191683800117855562000128565b8280016001018555821562000128579182015b82811115620001285782518255916020019190600101906200010b565b50620001369291506200013a565b5090565b5b808211156200013657600081556001016200013b565b6002810460018216806200016657607f821691505b60208210811415620001a1577f4e487b7100000000000000000000000000000000000000000000000000000000600052602260045260246000fd5b50919050565b61185680620001b76000396000f3fe608060405234801561001057600080fd5b506004361061011d576000357c01000000000000000000000000000000000000000000000000000000009004806370a08231116100b4578063a22cb46511610083578063a22cb46514610260578063b88d4fde14610273578063c87b56dd14610286578063e985e9c51461029957600080fd5b806370a08231146101eb5780638bfaf1011461020c578063922779331461021f57806395d89b411461025857600080fd5b806323b872dd116100f057806323b872dd1461019f57806342842e0e146101b25780636352211e146101c55780636c8b703f146101d857600080fd5b806301ffc9a71461012257806306fdde031461014a578063081812fc1461015f578063095ea7b31461018a575b600080fd5b610135610130366004611297565b6102d5565b60405190151581526020015b60405180910390f35b610152610372565b604051610141919061130c565b61017261016d36600461131f565b610404565b604051600160a060020a039091168152602001610141565b61019d610198366004611354565b6104b2565b005b61019d6101ad36600461137e565b6105ea565b61019d6101c036600461137e565b61061e565b6101726101d336600461131f565b610639565b6101526101e636600461131f565b6106c7565b6101fe6101f93660046113ba565b610761565b604051908152602001610141565b6101fe61021a366004611484565b6107fe565b60408051808201909152600381527f61626300000000000000000000000000000000000000000000000000000000006020820152610152565b610152610850565b61019d61026e3660046114f8565b61085f565b61019d610281366004611534565b61086e565b61015261029436600461131f565b6108a9565b6101356102a73660046115b0565b600160a060020a03918216600090815260056020908152604080832093909416825291909152205460ff1690565b6000600160e060020a031982167f80ac58cd0000000000000000000000000000000000000000000000000000000014806103385750600160e060020a031982167f5b5e139f00000000000000000000000000000000000000000000000000000000145b8061036c57507f01ffc9a700000000000000000000000000000000000000000000000000000000600160e060020a03198316145b92915050565b606060008054610381906115e3565b80601f01602080910402602001604051908101604052809291908181526020018280546103ad906115e3565b80156103fa5780601f106103cf576101008083540402835291602001916103fa565b820191906000526020600020905b8154815290600101906020018083116103dd57829003601f168201915b5050505050905090565b600081815260026020526040812054600160a060020a03166104965760405160e560020a62461bcd02815260206004820152602c60248201527f4552433732313a20617070726f76656420717565727920666f72206e6f6e657860448201527f697374656e7420746f6b656e000000000000000000000000000000000000000060648201526084015b60405180910390fd5b50600090815260046020526040902054600160a060020a031690565b60006104bd82610639565b905080600160a060020a031683600160a060020a0316141561054a5760405160e560020a62461bcd02815260206004820152602160248201527f4552433732313a20617070726f76616c20746f2063757272656e74206f776e6560448201527f7200000000000000000000000000000000000000000000000000000000000000606482015260840161048d565b33600160a060020a0382161480610566575061056681336102a7565b6105db5760405160e560020a62461bcd02815260206004820152603860248201527f4552433732313a20617070726f76652063616c6c6572206973206e6f74206f7760448201527f6e6572206e6f7220617070726f76656420666f7220616c6c0000000000000000606482015260840161048d565b6105e583836109a2565b505050565b6105f43382610a1d565b6106135760405160e560020a62461bcd02815260040161048d90611621565b6105e5838383610b24565b6105e58383836040518060200160405280600081525061086e565b600081815260026020526040812054600160a060020a03168061036c5760405160e560020a62461bcd02815260206004820152602960248201527f4552433732313a206f776e657220717565727920666f72206e6f6e657869737460448201527f656e7420746f6b656e0000000000000000000000000000000000000000000000606482015260840161048d565b600760205260009081526040902080546106e0906115e3565b80601f016020809104026020016040519081016040528092919081815260200182805461070c906115e3565b80156107595780601f1061072e57610100808354040283529160200191610759565b820191906000526020600020905b81548152906001019060200180831161073c57829003601f168201915b505050505081565b6000600160a060020a0382166107e25760405160e560020a62461bcd02815260206004820152602a60248201527f4552433732313a2062616c616e636520717565727920666f7220746865207a6560448201527f726f206164647265737300000000000000000000000000000000000000000000606482015260840161048d565b50600160a060020a031660009081526003602052604090205490565b600061080e600680546001019055565b600061081960065490565b6000818152600760209081526040909120855192935061083d9290918601906111e5565b506108488582610d04565b949350505050565b606060018054610381906115e3565b61086a338383610e59565b5050565b6108783383610a1d565b6108975760405160e560020a62461bcd02815260040161048d90611621565b6108a384848484610f2b565b50505050565b600081815260026020526040902054606090600160a060020a03166109395760405160e560020a62461bcd02815260206004820152602f60248201527f4552433732314d657461646174613a2055524920717565727920666f72206e6f60448201527f6e6578697374656e7420746f6b656e0000000000000000000000000000000000606482015260840161048d565b600061095060408051602081019091526000815290565b90506000815111610970576040518060200160405280600081525061099b565b8061097a84610f61565b60405160200161098b92919061167e565b6040516020818303038152906040525b9392505050565b6000818152600460205260409020805473ffffffffffffffffffffffffffffffffffffffff1916600160a060020a03841690811790915581906109e482610639565b600160a060020a03167f8c5be1e5ebec7d5bd14f71427d1e84f3dd0314c0f7b2291e5b200ac8c7c3b92560405160405180910390a45050565b600081815260026020526040812054600160a060020a0316610aaa5760405160e560020a62461bcd02815260206004820152602c60248201527f4552433732313a206f70657261746f7220717565727920666f72206e6f6e657860448201527f697374656e7420746f6b656e0000000000000000000000000000000000000000606482015260840161048d565b6000610ab583610639565b905080600160a060020a031684600160a060020a03161480610af0575083600160a060020a0316610ae584610404565b600160a060020a0316145b806108485750600160a060020a0380821660009081526005602090815260408083209388168352929052205460ff16610848565b82600160a060020a0316610b3782610639565b600160a060020a031614610bb65760405160e560020a62461bcd02815260206004820152602560248201527f4552433732313a207472616e736665722066726f6d20696e636f72726563742060448201527f6f776e6572000000000000000000000000000000000000000000000000000000606482015260840161048d565b600160a060020a038216610c345760405160e560020a62461bcd028152602060048201526024808201527f4552433732313a207472616e7366657220746f20746865207a65726f2061646460448201527f7265737300000000000000000000000000000000000000000000000000000000606482015260840161048d565b610c3f6000826109a2565b600160a060020a0383166000908152600360205260408120805460019290610c689084906116c6565b9091555050600160a060020a0382166000908152600360205260408120805460019290610c969084906116dd565b9091555050600081815260026020526040808220805473ffffffffffffffffffffffffffffffffffffffff1916600160a060020a0386811691821790925591518493918716917fddf252ad1be2c89b69c2b068fc378daa952ba7f163c4a11628f55a4df523b3ef91a4505050565b600160a060020a038216610d5d5760405160e560020a62461bcd02815260206004820181905260248201527f4552433732313a206d696e7420746f20746865207a65726f2061646472657373604482015260640161048d565b600081815260026020526040902054600160a060020a031615610dc55760405160e560020a62461bcd02815260206004820152601c60248201527f4552433732313a20746f6b656e20616c7265616479206d696e74656400000000604482015260640161048d565b600160a060020a0382166000908152600360205260408120805460019290610dee9084906116dd565b9091555050600081815260026020526040808220805473ffffffffffffffffffffffffffffffffffffffff1916600160a060020a03861690811790915590518392907fddf252ad1be2c89b69c2b068fc378daa952ba7f163c4a11628f55a4df523b3ef908290a45050565b81600160a060020a031683600160a060020a03161415610ebe5760405160e560020a62461bcd02815260206004820152601960248201527f4552433732313a20617070726f766520746f2063616c6c657200000000000000604482015260640161048d565b600160a060020a03838116600081815260056020908152604080832094871680845294825291829020805460ff191686151590811790915591519182527f17307eab39ab6107e8899845ad3d59bd9653f200f220920489ca2b5937696c31910160405180910390a3505050565b610f36848484610b24565b610f42848484846110b2565b6108a35760405160e560020a62461bcd02815260040161048d906116f5565b606081610fa157505060408051808201909152600181527f3000000000000000000000000000000000000000000000000000000000000000602082015290565b8160005b8115610fcb5780610fb581611752565b9150610fc49050600a83611786565b9150610fa5565b60008167ffffffffffffffff811115610fe657610fe66113d5565b6040519080825280601f01601f191660200182016040528015611010576020820181803683370190505b5090505b8415610848576110256001836116c6565b9150611032600a8661179a565b61103d9060306116dd565b7f010000000000000000000000000000000000000000000000000000000000000002818381518110611071576110716117ae565b60200101907effffffffffffffffffffffffffffffffffffffffffffffffffffffffffffff1916908160001a9053506110ab600a86611786565b9450611014565b6000600160a060020a0384163b156111da576040517f150b7a02000000000000000000000000000000000000000000000000000000008152600160a060020a0385169063150b7a029061110f9033908990889088906004016117c7565b6020604051808303816000875af192505050801561114a575060408051601f3d908101601f1916820190925261114791810190611803565b60015b6111a7573d808015611178576040519150601f19603f3d011682016040523d82523d6000602084013e61117d565b606091505b50805161119f5760405160e560020a62461bcd02815260040161048d906116f5565b805181602001fd5b600160e060020a0319167f150b7a0200000000000000000000000000000000000000000000000000000000149050610848565b506001949350505050565b8280546111f1906115e3565b90600052602060002090601f0160209004810192826112135760008555611259565b82601f1061122c57805160ff1916838001178555611259565b82800160010185558215611259579182015b8281111561125957825182559160200191906001019061123e565b50611265929150611269565b5090565b5b80821115611265576000815560010161126a565b600160e060020a03198116811461129457600080fd5b50565b6000602082840312156112a957600080fd5b813561099b8161127e565b60005b838110156112cf5781810151838201526020016112b7565b838111156108a35750506000910152565b600081518084526112f88160208601602086016112b4565b601f01601f19169290920160200192915050565b60208152600061099b60208301846112e0565b60006020828403121561133157600080fd5b5035919050565b8035600160a060020a038116811461134f57600080fd5b919050565b6000806040838503121561136757600080fd5b61137083611338565b946020939093013593505050565b60008060006060848603121561139357600080fd5b61139c84611338565b92506113aa60208501611338565b9150604084013590509250925092565b6000602082840312156113cc57600080fd5b61099b82611338565b60e060020a634e487b7102600052604160045260246000fd5b600067ffffffffffffffff80841115611409576114096113d5565b604051601f8501601f19908116603f01168101908282118183101715611431576114316113d5565b8160405280935085815286868601111561144a57600080fd5b858560208301376000602087830101525050509392505050565b600082601f83011261147557600080fd5b61099b838335602085016113ee565b60008060006060848603121561149957600080fd5b6114a284611338565b9250602084013567ffffffffffffffff808211156114bf57600080fd5b6114cb87838801611464565b935060408601359150808211156114e157600080fd5b506114ee86828701611464565b9150509250925092565b6000806040838503121561150b57600080fd5b61151483611338565b91506020830135801515811461152957600080fd5b809150509250929050565b6000806000806080858703121561154a57600080fd5b61155385611338565b935061156160208601611338565b925060408501359150606085013567ffffffffffffffff81111561158457600080fd5b8501601f8101871361159557600080fd5b6115a4878235602084016113ee565b91505092959194509250565b600080604083850312156115c357600080fd5b6115cc83611338565b91506115da60208401611338565b90509250929050565b6002810460018216806115f757607f821691505b6020821081141561161b5760e060020a634e487b7102600052602260045260246000fd5b50919050565b60208082526031908201527f4552433732313a207472616e736665722063616c6c6572206973206e6f74206f60408201527f776e6572206e6f7220617070726f766564000000000000000000000000000000606082015260800190565b600083516116908184602088016112b4565b8351908301906116a48183602088016112b4565b01949350505050565b60e060020a634e487b7102600052601160045260246000fd5b6000828210156116d8576116d86116ad565b500390565b600082198211156116f0576116f06116ad565b500190565b60208082526032908201527f4552433732313a207472616e7366657220746f206e6f6e20455243373231526560408201527f63656976657220696d706c656d656e7465720000000000000000000000000000606082015260800190565b6000600019821415611766576117666116ad565b5060010190565b60e060020a634e487b7102600052601260045260246000fd5b6000826117955761179561176d565b500490565b6000826117a9576117a961176d565b500690565b60e060020a634e487b7102600052603260045260246000fd5b6000600160a060020a038087168352808616602084015250836040830152608060608301526117f960808301846112e0565b9695505050505050565b60006020828403121561181557600080fd5b815161099b8161127e56fea264697066735822122079667a1e8f75109c29dc4fc0df2b676f628343906de83cc05f8a2b5ece64ab4b64736f6c634300080c0033",
  "immutableReferences": {},
  "source": "pragma solidity >=0.4.22 <0.9.0;\n\nimport '../node_modules/@openzeppelin/contracts/token/ERC721/ERC721.sol';\nimport '../node_modules/@openzeppelin/contracts/utils/Counters.sol';\n\ncontract UniqueAsset is ERC721{\n\n    using Counters for Counters.Counter;\n    Counters.Counter private _tokenIds;\n    mapping(uint256 => string) public tokenURIs;\n    \n\n    constructor() public ERC721(\"UniqueAsset\",\"UNA\"){}\n    \n    function awardItem(address recipient, string memory hash, string memory metadata) public returns (uint256){\n        _tokenIds.increment();\n        uint256 newItemId = _tokenIds.current();\n        tokenURIs[newItemId] = metadata;\n        _mint(recipient, newItemId);\n        return newItemId;\n    }\n\n    function abc() public returns (string memory){\n        return 'abc';\n    }\n\n}",
  "sourcePath": "/Users/siddharthagarwal/Desktop/Projects/FYP21050/server/blockchain/contracts/UniqueAsset.sol",
  "compiler": {
    "name": "solc",
    "version": "0.8.12+commit.f00d7308.Emscripten.clang"
  },
  "schemaVersion": "3.4.6",
  "updatedAt": "2022-03-13T08:08:55.891Z",
  "networkType": "ethereum",
  "devdoc": {
    "kind": "dev",
    "methods": {
      "approve(address,uint256)": {
        "details": "See {IERC721-approve}."
      },
      "balanceOf(address)": {
        "details": "See {IERC721-balanceOf}."
      },
      "getApproved(uint256)": {
        "details": "See {IERC721-getApproved}."
      },
      "isApprovedForAll(address,address)": {
        "details": "See {IERC721-isApprovedForAll}."
      },
      "name()": {
        "details": "See {IERC721Metadata-name}."
      },
      "ownerOf(uint256)": {
        "details": "See {IERC721-ownerOf}."
      },
      "safeTransferFrom(address,address,uint256)": {
        "details": "See {IERC721-safeTransferFrom}."
      },
      "safeTransferFrom(address,address,uint256,bytes)": {
        "details": "See {IERC721-safeTransferFrom}."
      },
      "setApprovalForAll(address,bool)": {
        "details": "See {IERC721-setApprovalForAll}."
      },
      "supportsInterface(bytes4)": {
        "details": "See {IERC165-supportsInterface}."
      },
      "symbol()": {
        "details": "See {IERC721Metadata-symbol}."
      },
      "tokenURI(uint256)": {
        "details": "See {IERC721Metadata-tokenURI}."
      },
      "transferFrom(address,address,uint256)": {
        "details": "See {IERC721-transferFrom}."
      }
    },
    "version": 1
  },
  "userdoc": {
    "kind": "user",
    "methods": {},
    "version": 1
  }
}