{
  "contractName": "Users",
  "abi": [
    {
      "inputs": [],
      "stateMutability": "nonpayable",
      "type": "constructor"
    },
    {
      "anonymous": false,
      "inputs": [
        {
          "indexed": true,
          "internalType": "address",
          "name": "owner",
          "type": "address"
        },
        {
          "indexed": true,
          "internalType": "address",
          "name": "approved",
          "type": "address"
        },
        {
          "indexed": true,
          "internalType": "uint256",
          "name": "tokenId",
          "type": "uint256"
        }
      ],
      "name": "Approval",
      "type": "event"
    },
    {
      "anonymous": false,
      "inputs": [
        {
          "indexed": true,
          "internalType": "address",
          "name": "owner",
          "type": "address"
        },
        {
          "indexed": true,
          "internalType": "address",
          "name": "operator",
          "type": "address"
        },
        {
          "indexed": false,
          "internalType": "bool",
          "name": "approved",
          "type": "bool"
        }
      ],
      "name": "ApprovalForAll",
      "type": "event"
    },
    {
      "anonymous": false,
      "inputs": [
        {
          "indexed": true,
          "internalType": "address",
          "name": "from",
          "type": "address"
        },
        {
          "indexed": true,
          "internalType": "address",
          "name": "to",
          "type": "address"
        },
        {
          "indexed": true,
          "internalType": "uint256",
          "name": "tokenId",
          "type": "uint256"
        }
      ],
      "name": "Transfer",
      "type": "event"
    },
    {
      "inputs": [
        {
          "internalType": "address",
          "name": "to",
          "type": "address"
        },
        {
          "internalType": "uint256",
          "name": "tokenId",
          "type": "uint256"
        }
      ],
      "name": "approve",
      "outputs": [],
      "stateMutability": "nonpayable",
      "type": "function"
    },
    {
      "inputs": [
        {
          "internalType": "address",
          "name": "owner",
          "type": "address"
        }
      ],
      "name": "balanceOf",
      "outputs": [
        {
          "internalType": "uint256",
          "name": "",
          "type": "uint256"
        }
      ],
      "stateMutability": "view",
      "type": "function",
      "constant": true
    },
    {
      "inputs": [
        {
          "internalType": "uint256",
          "name": "tokenId",
          "type": "uint256"
        }
      ],
      "name": "getApproved",
      "outputs": [
        {
          "internalType": "address",
          "name": "",
          "type": "address"
        }
      ],
      "stateMutability": "view",
      "type": "function",
      "constant": true
    },
    {
      "inputs": [
        {
          "internalType": "address",
          "name": "owner",
          "type": "address"
        },
        {
          "internalType": "address",
          "name": "operator",
          "type": "address"
        }
      ],
      "name": "isApprovedForAll",
      "outputs": [
        {
          "internalType": "bool",
          "name": "",
          "type": "bool"
        }
      ],
      "stateMutability": "view",
      "type": "function",
      "constant": true
    },
    {
      "inputs": [],
      "name": "name",
      "outputs": [
        {
          "internalType": "string",
          "name": "",
          "type": "string"
        }
      ],
      "stateMutability": "view",
      "type": "function",
      "constant": true
    },
    {
      "inputs": [
        {
          "internalType": "uint256",
          "name": "tokenId",
          "type": "uint256"
        }
      ],
      "name": "ownerOf",
      "outputs": [
        {
          "internalType": "address",
          "name": "",
          "type": "address"
        }
      ],
      "stateMutability": "view",
      "type": "function",
      "constant": true
    },
    {
      "inputs": [
        {
          "internalType": "address",
          "name": "from",
          "type": "address"
        },
        {
          "internalType": "address",
          "name": "to",
          "type": "address"
        },
        {
          "internalType": "uint256",
          "name": "tokenId",
          "type": "uint256"
        }
      ],
      "name": "safeTransferFrom",
      "outputs": [],
      "stateMutability": "nonpayable",
      "type": "function"
    },
    {
      "inputs": [
        {
          "internalType": "address",
          "name": "from",
          "type": "address"
        },
        {
          "internalType": "address",
          "name": "to",
          "type": "address"
        },
        {
          "internalType": "uint256",
          "name": "tokenId",
          "type": "uint256"
        },
        {
          "internalType": "bytes",
          "name": "_data",
          "type": "bytes"
        }
      ],
      "name": "safeTransferFrom",
      "outputs": [],
      "stateMutability": "nonpayable",
      "type": "function"
    },
    {
      "inputs": [
        {
          "internalType": "address",
          "name": "operator",
          "type": "address"
        },
        {
          "internalType": "bool",
          "name": "approved",
          "type": "bool"
        }
      ],
      "name": "setApprovalForAll",
      "outputs": [],
      "stateMutability": "nonpayable",
      "type": "function"
    },
    {
      "inputs": [
        {
          "internalType": "bytes4",
          "name": "interfaceId",
          "type": "bytes4"
        }
      ],
      "name": "supportsInterface",
      "outputs": [
        {
          "internalType": "bool",
          "name": "",
          "type": "bool"
        }
      ],
      "stateMutability": "view",
      "type": "function",
      "constant": true
    },
    {
      "inputs": [],
      "name": "symbol",
      "outputs": [
        {
          "internalType": "string",
          "name": "",
          "type": "string"
        }
      ],
      "stateMutability": "view",
      "type": "function",
      "constant": true
    },
    {
      "inputs": [
        {
          "internalType": "uint256",
          "name": "tokenId",
          "type": "uint256"
        }
      ],
      "name": "tokenURI",
      "outputs": [
        {
          "internalType": "string",
          "name": "",
          "type": "string"
        }
      ],
      "stateMutability": "view",
      "type": "function",
      "constant": true
    },
    {
      "inputs": [
        {
          "internalType": "address",
          "name": "from",
          "type": "address"
        },
        {
          "internalType": "address",
          "name": "to",
          "type": "address"
        },
        {
          "internalType": "uint256",
          "name": "tokenId",
          "type": "uint256"
        }
      ],
      "name": "transferFrom",
      "outputs": [],
      "stateMutability": "nonpayable",
      "type": "function"
    },
    {
      "inputs": [
        {
          "internalType": "uint256",
          "name": "",
          "type": "uint256"
        }
      ],
      "name": "userInfo",
      "outputs": [
        {
          "internalType": "address",
          "name": "userAddress",
          "type": "address"
        },
        {
          "internalType": "string",
          "name": "username",
          "type": "string"
        },
        {
          "internalType": "string",
          "name": "password",
          "type": "string"
        }
      ],
      "stateMutability": "view",
      "type": "function",
      "constant": true
    },
    {
      "inputs": [
        {
          "internalType": "address",
          "name": "_userAddress",
          "type": "address"
        },
        {
          "internalType": "string",
          "name": "_username",
          "type": "string"
        },
        {
          "internalType": "string",
          "name": "_password",
          "type": "string"
        }
      ],
      "name": "createNewUser",
      "outputs": [
        {
          "internalType": "uint256",
          "name": "",
          "type": "uint256"
        }
      ],
      "stateMutability": "nonpayable",
      "type": "function"
    },
    {
      "inputs": [
        {
          "internalType": "uint256",
          "name": "userId",
          "type": "uint256"
        },
        {
          "internalType": "uint256",
          "name": "fileTokenId",
          "type": "uint256"
        }
      ],
      "name": "addFileToUser",
      "outputs": [],
      "stateMutability": "nonpayable",
      "type": "function"
    }
  ],
  "bytecode": "0x60806040523480156200001157600080fd5b50604080518082018252600781527f465950557365720000000000000000000000000000000000000000000000000060208083019182528351808501909452600484527f46595055000000000000000000000000000000000000000000000000000000009084015281519192916200008c91600091620000ab565b508051620000a2906001906020840190620000ab565b505050620001a7565b828054620000b99062000151565b90600052602060002090601f016020900481019282620000dd576000855562000128565b82601f10620000f857805160ff191683800117855562000128565b8280016001018555821562000128579182015b82811115620001285782518255916020019190600101906200010b565b50620001369291506200013a565b5090565b5b808211156200013657600081556001016200013b565b6002810460018216806200016657607f821691505b60208210811415620001a1577f4e487b7100000000000000000000000000000000000000000000000000000000600052602260045260246000fd5b50919050565b611a2880620001b76000396000f3fe608060405234801561001057600080fd5b506004361061011d576000357c0100000000000000000000000000000000000000000000000000000000900480636352211e116100b4578063b88d4fde11610083578063b88d4fde1461026a578063c87b56dd1461027d578063d203d03514610290578063e985e9c5146102a357600080fd5b80636352211e1461021b57806370a082311461022e57806395d89b411461024f578063a22cb4651461025757600080fd5b806323b872dd116100f057806323b872dd1461019f57806342842e0e146101b25780634ab1ec9d146101c557806351d70bc4146101f957600080fd5b806301ffc9a71461012257806306fdde031461014a578063081812fc1461015f578063095ea7b31461018a575b600080fd5b610135610130366004611413565b6102df565b60405190151581526020015b60405180910390f35b61015261037c565b6040516101419190611488565b61017261016d36600461149b565b61040e565b604051600160a060020a039091168152602001610141565b61019d6101983660046114d0565b6104bc565b005b61019d6101ad3660046114fa565b6105f4565b61019d6101c03660046114fa565b610628565b61019d6101d3366004611536565b600091825260076020908152604083206003018054600181018255908452922090910155565b61020c61020736600461149b565b610643565b60405161014193929190611558565b61017261022936600461149b565b610780565b61024161023c366004611596565b61080e565b604051908152602001610141565b6101526108ab565b61019d6102653660046115b1565b6108ba565b61019d61027836600461167c565b6108c9565b61015261028b36600461149b565b610904565b61024161029e366004611718565b6109fd565b6101356102b136600461178c565b600160a060020a03918216600090815260056020908152604080832093909416825291909152205460ff1690565b6000600160e060020a031982167f80ac58cd0000000000000000000000000000000000000000000000000000000014806103425750600160e060020a031982167f5b5e139f00000000000000000000000000000000000000000000000000000000145b8061037657507f01ffc9a700000000000000000000000000000000000000000000000000000000600160e060020a03198316145b92915050565b60606000805461038b906117bf565b80601f01602080910402602001604051908101604052809291908181526020018280546103b7906117bf565b80156104045780601f106103d957610100808354040283529160200191610404565b820191906000526020600020905b8154815290600101906020018083116103e757829003601f168201915b5050505050905090565b600081815260026020526040812054600160a060020a03166104a05760405160e560020a62461bcd02815260206004820152602c60248201527f4552433732313a20617070726f76656420717565727920666f72206e6f6e657860448201527f697374656e7420746f6b656e000000000000000000000000000000000000000060648201526084015b60405180910390fd5b50600090815260046020526040902054600160a060020a031690565b60006104c782610780565b905080600160a060020a031683600160a060020a031614156105545760405160e560020a62461bcd02815260206004820152602160248201527f4552433732313a20617070726f76616c20746f2063757272656e74206f776e6560448201527f72000000000000000000000000000000000000000000000000000000000000006064820152608401610497565b33600160a060020a0382161480610570575061057081336102b1565b6105e55760405160e560020a62461bcd02815260206004820152603860248201527f4552433732313a20617070726f76652063616c6c6572206973206e6f74206f7760448201527f6e6572206e6f7220617070726f76656420666f7220616c6c00000000000000006064820152608401610497565b6105ef8383610ae0565b505050565b6105fe3382610b5b565b61061d5760405160e560020a62461bcd028152600401610497906117fd565b6105ef838383610c66565b6105ef838383604051806020016040528060008152506108c9565b60076020526000908152604090208054600182018054600160a060020a03909216929161066f906117bf565b80601f016020809104026020016040519081016040528092919081815260200182805461069b906117bf565b80156106e85780601f106106bd576101008083540402835291602001916106e8565b820191906000526020600020905b8154815290600101906020018083116106cb57829003601f168201915b5050505050908060020180546106fd906117bf565b80601f0160208091040260200160405190810160405280929190818152602001828054610729906117bf565b80156107765780601f1061074b57610100808354040283529160200191610776565b820191906000526020600020905b81548152906001019060200180831161075957829003601f168201915b5050505050905083565b600081815260026020526040812054600160a060020a0316806103765760405160e560020a62461bcd02815260206004820152602960248201527f4552433732313a206f776e657220717565727920666f72206e6f6e657869737460448201527f656e7420746f6b656e00000000000000000000000000000000000000000000006064820152608401610497565b6000600160a060020a03821661088f5760405160e560020a62461bcd02815260206004820152602a60248201527f4552433732313a2062616c616e636520717565727920666f7220746865207a6560448201527f726f2061646472657373000000000000000000000000000000000000000000006064820152608401610497565b50600160a060020a031660009081526003602052604090205490565b60606001805461038b906117bf565b6108c5338383610e46565b5050565b6108d33383610b5b565b6108f25760405160e560020a62461bcd028152600401610497906117fd565b6108fe84848484610f18565b50505050565b600081815260026020526040902054606090600160a060020a03166109945760405160e560020a62461bcd02815260206004820152602f60248201527f4552433732314d657461646174613a2055524920717565727920666f72206e6f60448201527f6e6578697374656e7420746f6b656e00000000000000000000000000000000006064820152608401610497565b60006109ab60408051602081019091526000815290565b905060008151116109cb57604051806020016040528060008152506109f6565b806109d584610f4e565b6040516020016109e692919061185a565b6040516020818303038152906040525b9392505050565b6000610a0d600680546001019055565b6000610a1860065490565b60408051608081018252600160a060020a03888116825260208083018981528385018990526060808501819052600087815260078452959095208451815473ffffffffffffffffffffffffffffffffffffffff19169416939093178355518051959650939492939192610a919260018501920190611327565b5060408201518051610aad916002840191602090910190611327565b5060608201518051610ac99160038401916020909101906113ab565b50905050610ad7868361109f565b50949350505050565b6000818152600460205260409020805473ffffffffffffffffffffffffffffffffffffffff1916600160a060020a0384169081179091558190610b2282610780565b600160a060020a03167f8c5be1e5ebec7d5bd14f71427d1e84f3dd0314c0f7b2291e5b200ac8c7c3b92560405160405180910390a45050565b600081815260026020526040812054600160a060020a0316610be85760405160e560020a62461bcd02815260206004820152602c60248201527f4552433732313a206f70657261746f7220717565727920666f72206e6f6e657860448201527f697374656e7420746f6b656e00000000000000000000000000000000000000006064820152608401610497565b6000610bf383610780565b905080600160a060020a031684600160a060020a03161480610c2e575083600160a060020a0316610c238461040e565b600160a060020a0316145b80610c5e5750600160a060020a0380821660009081526005602090815260408083209388168352929052205460ff165b949350505050565b82600160a060020a0316610c7982610780565b600160a060020a031614610cf85760405160e560020a62461bcd02815260206004820152602560248201527f4552433732313a207472616e736665722066726f6d20696e636f72726563742060448201527f6f776e65720000000000000000000000000000000000000000000000000000006064820152608401610497565b600160a060020a038216610d765760405160e560020a62461bcd028152602060048201526024808201527f4552433732313a207472616e7366657220746f20746865207a65726f2061646460448201527f72657373000000000000000000000000000000000000000000000000000000006064820152608401610497565b610d81600082610ae0565b600160a060020a0383166000908152600360205260408120805460019290610daa9084906118a2565b9091555050600160a060020a0382166000908152600360205260408120805460019290610dd89084906118b9565b9091555050600081815260026020526040808220805473ffffffffffffffffffffffffffffffffffffffff1916600160a060020a0386811691821790925591518493918716917fddf252ad1be2c89b69c2b068fc378daa952ba7f163c4a11628f55a4df523b3ef91a4505050565b81600160a060020a031683600160a060020a03161415610eab5760405160e560020a62461bcd02815260206004820152601960248201527f4552433732313a20617070726f766520746f2063616c6c6572000000000000006044820152606401610497565b600160a060020a03838116600081815260056020908152604080832094871680845294825291829020805460ff191686151590811790915591519182527f17307eab39ab6107e8899845ad3d59bd9653f200f220920489ca2b5937696c31910160405180910390a3505050565b610f23848484610c66565b610f2f848484846111f4565b6108fe5760405160e560020a62461bcd028152600401610497906118d1565b606081610f8e57505060408051808201909152600181527f3000000000000000000000000000000000000000000000000000000000000000602082015290565b8160005b8115610fb85780610fa28161192e565b9150610fb19050600a83611962565b9150610f92565b60008167ffffffffffffffff811115610fd357610fd36115ed565b6040519080825280601f01601f191660200182016040528015610ffd576020820181803683370190505b5090505b8415610c5e576110126001836118a2565b915061101f600a86611976565b61102a9060306118b9565b7f01000000000000000000000000000000000000000000000000000000000000000281838151811061105e5761105e61198a565b60200101907effffffffffffffffffffffffffffffffffffffffffffffffffffffffffffff1916908160001a905350611098600a86611962565b9450611001565b600160a060020a0382166110f85760405160e560020a62461bcd02815260206004820181905260248201527f4552433732313a206d696e7420746f20746865207a65726f20616464726573736044820152606401610497565b600081815260026020526040902054600160a060020a0316156111605760405160e560020a62461bcd02815260206004820152601c60248201527f4552433732313a20746f6b656e20616c7265616479206d696e746564000000006044820152606401610497565b600160a060020a03821660009081526003602052604081208054600192906111899084906118b9565b9091555050600081815260026020526040808220805473ffffffffffffffffffffffffffffffffffffffff1916600160a060020a03861690811790915590518392907fddf252ad1be2c89b69c2b068fc378daa952ba7f163c4a11628f55a4df523b3ef908290a45050565b6000600160a060020a0384163b1561131c576040517f150b7a02000000000000000000000000000000000000000000000000000000008152600160a060020a0385169063150b7a02906112519033908990889088906004016119a3565b6020604051808303816000875af192505050801561128c575060408051601f3d908101601f19168201909252611289918101906119d5565b60015b6112e9573d8080156112ba576040519150601f19603f3d011682016040523d82523d6000602084013e6112bf565b606091505b5080516112e15760405160e560020a62461bcd028152600401610497906118d1565b805181602001fd5b600160e060020a0319167f150b7a0200000000000000000000000000000000000000000000000000000000149050610c5e565b506001949350505050565b828054611333906117bf565b90600052602060002090601f016020900481019282611355576000855561139b565b82601f1061136e57805160ff191683800117855561139b565b8280016001018555821561139b579182015b8281111561139b578251825591602001919060010190611380565b506113a79291506113e5565b5090565b82805482825590600052602060002090810192821561139b579160200282018281111561139b578251825591602001919060010190611380565b5b808211156113a757600081556001016113e6565b600160e060020a03198116811461141057600080fd5b50565b60006020828403121561142557600080fd5b81356109f6816113fa565b60005b8381101561144b578181015183820152602001611433565b838111156108fe5750506000910152565b60008151808452611474816020860160208601611430565b601f01601f19169290920160200192915050565b6020815260006109f6602083018461145c565b6000602082840312156114ad57600080fd5b5035919050565b8035600160a060020a03811681146114cb57600080fd5b919050565b600080604083850312156114e357600080fd5b6114ec836114b4565b946020939093013593505050565b60008060006060848603121561150f57600080fd5b611518846114b4565b9250611526602085016114b4565b9150604084013590509250925092565b6000806040838503121561154957600080fd5b50508035926020909101359150565b600160a060020a038416815260606020820152600061157a606083018561145c565b828103604084015261158c818561145c565b9695505050505050565b6000602082840312156115a857600080fd5b6109f6826114b4565b600080604083850312156115c457600080fd5b6115cd836114b4565b9150602083013580151581146115e257600080fd5b809150509250929050565b60e060020a634e487b7102600052604160045260246000fd5b600067ffffffffffffffff80841115611621576116216115ed565b604051601f8501601f19908116603f01168101908282118183101715611649576116496115ed565b8160405280935085815286868601111561166257600080fd5b858560208301376000602087830101525050509392505050565b6000806000806080858703121561169257600080fd5b61169b856114b4565b93506116a9602086016114b4565b925060408501359150606085013567ffffffffffffffff8111156116cc57600080fd5b8501601f810187136116dd57600080fd5b6116ec87823560208401611606565b91505092959194509250565b600082601f83011261170957600080fd5b6109f683833560208501611606565b60008060006060848603121561172d57600080fd5b611736846114b4565b9250602084013567ffffffffffffffff8082111561175357600080fd5b61175f878388016116f8565b9350604086013591508082111561177557600080fd5b50611782868287016116f8565b9150509250925092565b6000806040838503121561179f57600080fd5b6117a8836114b4565b91506117b6602084016114b4565b90509250929050565b6002810460018216806117d357607f821691505b602082108114156117f75760e060020a634e487b7102600052602260045260246000fd5b50919050565b60208082526031908201527f4552433732313a207472616e736665722063616c6c6572206973206e6f74206f60408201527f776e6572206e6f7220617070726f766564000000000000000000000000000000606082015260800190565b6000835161186c818460208801611430565b835190830190611880818360208801611430565b01949350505050565b60e060020a634e487b7102600052601160045260246000fd5b6000828210156118b4576118b4611889565b500390565b600082198211156118cc576118cc611889565b500190565b60208082526032908201527f4552433732313a207472616e7366657220746f206e6f6e20455243373231526560408201527f63656976657220696d706c656d656e7465720000000000000000000000000000606082015260800190565b600060001982141561194257611942611889565b5060010190565b60e060020a634e487b7102600052601260045260246000fd5b60008261197157611971611949565b500490565b60008261198557611985611949565b500690565b60e060020a634e487b7102600052603260045260246000fd5b6000600160a060020a0380871683528086166020840152508360408301526080606083015261158c608083018461145c565b6000602082840312156119e757600080fd5b81516109f6816113fa56fea26469706673582212205dbe8ab7be8450be56d3a56075ee4c85a72afc3f7b807ca1ae2865cfe580791f64736f6c634300080c0033",
  "immutableReferences": {},
  "source": "pragma solidity >=0.4.22 <0.9.0;\n\nimport '../node_modules/@openzeppelin/contracts/token/ERC721/ERC721.sol';\nimport '../node_modules/@openzeppelin/contracts/utils/Counters.sol';\n\ncontract Users is ERC721{\n    struct User{\n        address userAddress;\n        string username;\n        string password;\n        uint256[] fileIds;\n    }\n    \n    using Counters for Counters.Counter;\n    Counters.Counter private _userIds;\n    mapping(uint256 => User) public userInfo;\n    \n    constructor() public ERC721(\"FYPUser\",\"FYPU\"){}\n\n    function createNewUser(address _userAddress, string memory _username, string memory _password) public returns (uint256){\n        _userIds.increment();\n        uint256 newUserId = _userIds.current();\n        uint256[] memory fileIds;\n        userInfo[newUserId] = User(_userAddress, _username, _password, fileIds);\n        _mint(_userAddress, newUserId);\n        return newUserId;\n    }\n    \n    function addFileToUser(uint256 userId, uint256 fileTokenId) public {\n        User storage user = userInfo[userId];\n        user.fileIds.push(fileTokenId);\n    }\n}",
  "sourcePath": "/Users/siddharthagarwal/Desktop/Projects/FYP21050/server/blockchain/contracts/Users.sol",
  "compiler": {
    "name": "solc",
    "version": "0.8.12+commit.f00d7308.Emscripten.clang"
  },
  "schemaVersion": "3.4.6",
  "updatedAt": "2022-03-13T08:08:55.882Z",
  "networkType": "ethereum",
  "devdoc": {
    "kind": "dev",
    "methods": {
      "approve(address,uint256)": {
        "details": "See {IERC721-approve}."
      },
      "balanceOf(address)": {
        "details": "See {IERC721-balanceOf}."
      },
      "getApproved(uint256)": {
        "details": "See {IERC721-getApproved}."
      },
      "isApprovedForAll(address,address)": {
        "details": "See {IERC721-isApprovedForAll}."
      },
      "name()": {
        "details": "See {IERC721Metadata-name}."
      },
      "ownerOf(uint256)": {
        "details": "See {IERC721-ownerOf}."
      },
      "safeTransferFrom(address,address,uint256)": {
        "details": "See {IERC721-safeTransferFrom}."
      },
      "safeTransferFrom(address,address,uint256,bytes)": {
        "details": "See {IERC721-safeTransferFrom}."
      },
      "setApprovalForAll(address,bool)": {
        "details": "See {IERC721-setApprovalForAll}."
      },
      "supportsInterface(bytes4)": {
        "details": "See {IERC165-supportsInterface}."
      },
      "symbol()": {
        "details": "See {IERC721Metadata-symbol}."
      },
      "tokenURI(uint256)": {
        "details": "See {IERC721Metadata-tokenURI}."
      },
      "transferFrom(address,address,uint256)": {
        "details": "See {IERC721-transferFrom}."
      }
    },
    "version": 1
  },
  "userdoc": {
    "kind": "user",
    "methods": {},
    "version": 1
  }
}